{
  "contractName": "BCPLSale",
  "abi": [
    {
      "inputs": [
        {
          "internalType": "uint256",
          "name": "rate",
          "type": "uint256"
        },
        {
          "internalType": "address payable",
          "name": "wallet",
          "type": "address"
        },
        {
          "internalType": "contract IERC20",
          "name": "token",
          "type": "address"
        }
      ],
      "stateMutability": "nonpayable",
      "type": "constructor"
    },
    {
      "anonymous": false,
      "inputs": [
        {
          "indexed": true,
          "internalType": "address",
          "name": "purchaser",
          "type": "address"
        },
        {
          "indexed": true,
          "internalType": "address",
          "name": "beneficiary",
          "type": "address"
        },
        {
          "indexed": false,
          "internalType": "uint256",
          "name": "value",
          "type": "uint256"
        },
        {
          "indexed": false,
          "internalType": "uint256",
          "name": "amount",
          "type": "uint256"
        }
      ],
      "name": "TokensPurchased",
      "type": "event"
    },
    {
      "inputs": [
        {
          "internalType": "address",
          "name": "beneficiary",
          "type": "address"
        }
      ],
      "name": "buyTokens",
      "outputs": [],
      "stateMutability": "payable",
      "type": "function",
      "payable": true
    },
    {
      "inputs": [],
      "name": "rateA",
      "outputs": [
        {
          "internalType": "uint256",
          "name": "",
          "type": "uint256"
        }
      ],
      "stateMutability": "view",
      "type": "function",
      "constant": true
    },
    {
      "inputs": [],
      "name": "tokenA",
      "outputs": [
        {
          "internalType": "contract IERC20",
          "name": "",
          "type": "address"
        }
      ],
      "stateMutability": "view",
      "type": "function",
      "constant": true
    },
    {
      "inputs": [],
      "name": "walletA",
      "outputs": [
        {
          "internalType": "address",
          "name": "",
          "type": "address"
        }
      ],
      "stateMutability": "view",
      "type": "function",
      "constant": true
    },
    {
      "inputs": [],
      "name": "weiRaisedA",
      "outputs": [
        {
          "internalType": "uint256",
          "name": "",
          "type": "uint256"
        }
      ],
      "stateMutability": "view",
      "type": "function",
      "constant": true
    },
    {
      "stateMutability": "payable",
      "type": "receive",
      "payable": true
    }
  ],
  "bytecode": "0x60806040523480156200001157600080fd5b50604051620013c2380380620013c2833981810160405281019062000037919062000248565b82828260016000819055506000831162000088576040517f08c379a00000000000000000000000000000000000000000000000000000000081526004016200007f9062000335565b60405180910390fd5b600073ffffffffffffffffffffffffffffffffffffffff168273ffffffffffffffffffffffffffffffffffffffff161415620000fb576040517f08c379a0000000000000000000000000000000000000000000000000000000008152600401620000f29062000357565b60405180910390fd5b600073ffffffffffffffffffffffffffffffffffffffff168173ffffffffffffffffffffffffffffffffffffffff1614156200016e576040517f08c379a0000000000000000000000000000000000000000000000000000000008152600401620001659062000313565b60405180910390fd5b8260038190555081600260006101000a81548173ffffffffffffffffffffffffffffffffffffffff021916908373ffffffffffffffffffffffffffffffffffffffff16021790555080600160006101000a81548173ffffffffffffffffffffffffffffffffffffffff021916908373ffffffffffffffffffffffffffffffffffffffff16021790555050505050505062000505565b6000815190506200021481620004b7565b92915050565b6000815190506200022b81620004d1565b92915050565b6000815190506200024281620004eb565b92915050565b6000806000606084860312156200025e57600080fd5b60006200026e8682870162000231565b9350506020620002818682870162000203565b925050604062000294868287016200021a565b9150509250925092565b6000620002ad60248362000379565b9150620002ba82620003f0565b604082019050919050565b6000620002d460148362000379565b9150620002e1826200043f565b602082019050919050565b6000620002fb60258362000379565b9150620003088262000468565b604082019050919050565b600060208201905081810360008301526200032e816200029e565b9050919050565b600060208201905081810360008301526200035081620002c5565b9050919050565b600060208201905081810360008301526200037281620002ec565b9050919050565b600082825260208201905092915050565b60006200039782620003c6565b9050919050565b6000620003ab82620003c6565b9050919050565b6000620003bf826200038a565b9050919050565b600073ffffffffffffffffffffffffffffffffffffffff82169050919050565b6000819050919050565b7f43726f776473616c653a20746f6b656e20697320746865207a65726f2061646460008201527f7265737300000000000000000000000000000000000000000000000000000000602082015250565b7f43726f776473616c653a20726174652069732030000000000000000000000000600082015250565b7f43726f776473616c653a2077616c6c657420697320746865207a65726f20616460008201527f6472657373000000000000000000000000000000000000000000000000000000602082015250565b620004c2816200039e565b8114620004ce57600080fd5b50565b620004dc81620003b2565b8114620004e857600080fd5b50565b620004f681620003e6565b81146200050257600080fd5b50565b610ead80620005156000396000f3fe60806040526004361061004e5760003560e01c80630fc63d101461006a5780632b24aa6e1461009557806336a4b31e146100c0578063b77e7da0146100eb578063ec8ac4d81461011657610065565b366100655761006361005e610132565b61013a565b005b600080fd5b34801561007657600080fd5b5061007f610260565b60405161008c91906109df565b60405180910390f35b3480156100a157600080fd5b506100aa61028a565b6040516100b79190610adc565b60405180910390f35b3480156100cc57600080fd5b506100d5610294565b6040516100e29190610adc565b60405180910390f35b3480156100f757600080fd5b5061010061029e565b60405161010d919061099b565b60405180910390f35b610130600480360381019061012b91906107c9565b61013a565b005b600033905090565b60026000541415610180576040517f08c379a000000000000000000000000000000000000000000000000000000000815260040161017790610a9c565b60405180910390fd5b6002600081905550600034905061019782826102c8565b60006101a282610380565b90506101b98260045461039e90919063ffffffff16565b6004819055506101c983826103b4565b8273ffffffffffffffffffffffffffffffffffffffff166101e8610132565b73ffffffffffffffffffffffffffffffffffffffff167f6faf93231a456e552dbc9961f58d9713ee4f2e69d15f1975b050ef0911053a7b848460405161022f929190610af7565b60405180910390a361024183836103c2565b6102496103c6565b6102538383610431565b5050600160008190555050565b6000600160009054906101000a900473ffffffffffffffffffffffffffffffffffffffff16905090565b6000600354905090565b6000600454905090565b6000600260009054906101000a900473ffffffffffffffffffffffffffffffffffffffff16905090565b600073ffffffffffffffffffffffffffffffffffffffff168273ffffffffffffffffffffffffffffffffffffffff161415610338576040517f08c379a000000000000000000000000000000000000000000000000000000000815260040161032f90610a3c565b60405180910390fd5b600081141561037c576040517f08c379a000000000000000000000000000000000000000000000000000000000815260040161037390610abc565b60405180910390fd5b5050565b60006103976003548361043590919063ffffffff16565b9050919050565b600081836103ac9190610b52565b905092915050565b6103be828261044b565b5050565b5050565b600260009054906101000a900473ffffffffffffffffffffffffffffffffffffffff1673ffffffffffffffffffffffffffffffffffffffff166108fc349081150290604051600060405180830381858888f1935050505015801561042e573d6000803e3d6000fd5b50565b5050565b600081836104439190610ba8565b905092915050565b6104988282600160009054906101000a900473ffffffffffffffffffffffffffffffffffffffff1673ffffffffffffffffffffffffffffffffffffffff1661049c9092919063ffffffff16565b5050565b61051d8363a9059cbb60e01b84846040516024016104bb9291906109b6565b604051602081830303815290604052907bffffffffffffffffffffffffffffffffffffffffffffffffffffffff19166020820180517bffffffffffffffffffffffffffffffffffffffffffffffffffffffff8381831617835250505050610522565b505050565b6000610584826040518060400160405280602081526020017f5361666545524332303a206c6f772d6c6576656c2063616c6c206661696c65648152508573ffffffffffffffffffffffffffffffffffffffff166105e99092919063ffffffff16565b90506000815111156105e457808060200190518101906105a491906107f2565b6105e3576040517f08c379a00000000000000000000000000000000000000000000000000000000081526004016105da90610a7c565b60405180910390fd5b5b505050565b60606105f88484600085610601565b90509392505050565b606082471015610646576040517f08c379a000000000000000000000000000000000000000000000000000000000815260040161063d90610a1c565b60405180910390fd5b61064f85610715565b61068e576040517f08c379a000000000000000000000000000000000000000000000000000000000815260040161068590610a5c565b60405180910390fd5b6000808673ffffffffffffffffffffffffffffffffffffffff1685876040516106b79190610984565b60006040518083038185875af1925050503d80600081146106f4576040519150601f19603f3d011682016040523d82523d6000602084013e6106f9565b606091505b5091509150610709828286610738565b92505050949350505050565b6000808273ffffffffffffffffffffffffffffffffffffffff163b119050919050565b6060831561074857829050610798565b60008351111561075b5782518084602001fd5b816040517f08c379a000000000000000000000000000000000000000000000000000000000815260040161078f91906109fa565b60405180910390fd5b9392505050565b6000813590506107ae81610e49565b92915050565b6000815190506107c381610e60565b92915050565b6000602082840312156107db57600080fd5b60006107e98482850161079f565b91505092915050565b60006020828403121561080457600080fd5b6000610812848285016107b4565b91505092915050565b61082481610c02565b82525050565b600061083582610b20565b61083f8185610b36565b935061084f818560208601610c6e565b80840191505092915050565b61086481610c4a565b82525050565b600061087582610b2b565b61087f8185610b41565b935061088f818560208601610c6e565b61089881610cd0565b840191505092915050565b60006108b0602683610b41565b91506108bb82610ce1565b604082019050919050565b60006108d3602a83610b41565b91506108de82610d30565b604082019050919050565b60006108f6601d83610b41565b915061090182610d7f565b602082019050919050565b6000610919602a83610b41565b915061092482610da8565b604082019050919050565b600061093c601f83610b41565b915061094782610df7565b602082019050919050565b600061095f601983610b41565b915061096a82610e20565b602082019050919050565b61097e81610c40565b82525050565b6000610990828461082a565b915081905092915050565b60006020820190506109b0600083018461081b565b92915050565b60006040820190506109cb600083018561081b565b6109d86020830184610975565b9392505050565b60006020820190506109f4600083018461085b565b92915050565b60006020820190508181036000830152610a14818461086a565b905092915050565b60006020820190508181036000830152610a35816108a3565b9050919050565b60006020820190508181036000830152610a55816108c6565b9050919050565b60006020820190508181036000830152610a75816108e9565b9050919050565b60006020820190508181036000830152610a958161090c565b9050919050565b60006020820190508181036000830152610ab58161092f565b9050919050565b60006020820190508181036000830152610ad581610952565b9050919050565b6000602082019050610af16000830184610975565b92915050565b6000604082019050610b0c6000830185610975565b610b196020830184610975565b9392505050565b600081519050919050565b600081519050919050565b600081905092915050565b600082825260208201905092915050565b6000610b5d82610c40565b9150610b6883610c40565b9250827fffffffffffffffffffffffffffffffffffffffffffffffffffffffffffffffff03821115610b9d57610b9c610ca1565b5b828201905092915050565b6000610bb382610c40565b9150610bbe83610c40565b9250817fffffffffffffffffffffffffffffffffffffffffffffffffffffffffffffffff0483118215151615610bf757610bf6610ca1565b5b828202905092915050565b6000610c0d82610c20565b9050919050565b60008115159050919050565b600073ffffffffffffffffffffffffffffffffffffffff82169050919050565b6000819050919050565b6000610c5582610c5c565b9050919050565b6000610c6782610c20565b9050919050565b60005b83811015610c8c578082015181840152602081019050610c71565b83811115610c9b576000848401525b50505050565b7f4e487b7100000000000000000000000000000000000000000000000000000000600052601160045260246000fd5b6000601f19601f8301169050919050565b7f416464726573733a20696e73756666696369656e742062616c616e636520666f60008201527f722063616c6c0000000000000000000000000000000000000000000000000000602082015250565b7f43726f776473616c653a2062656e656669636961727920697320746865207a6560008201527f726f206164647265737300000000000000000000000000000000000000000000602082015250565b7f416464726573733a2063616c6c20746f206e6f6e2d636f6e7472616374000000600082015250565b7f5361666545524332303a204552433230206f7065726174696f6e20646964206e60008201527f6f74207375636365656400000000000000000000000000000000000000000000602082015250565b7f5265656e7472616e637947756172643a207265656e7472616e742063616c6c00600082015250565b7f43726f776473616c653a20776569416d6f756e74206973203000000000000000600082015250565b610e5281610c02565b8114610e5d57600080fd5b50565b610e6981610c14565b8114610e7457600080fd5b5056fea2646970667358221220a79c242714d180cb1406e0f7a4668af601f67d8c7bcb6452516b52357743c0cc64736f6c63430008010033",
  "immutableReferences": {},
  "source": "pragma solidity ^0.8.1;\n\nimport \"./extended/Crowdsale.sol\";\n\ncontract BCPLSale is Crowdsale {\n    constructor(uint256 rate, address payable wallet, IERC20 token) Crowdsale(rate, wallet, token) public {\n\n    }\n}",
  "sourcePath": "/Users/leootshudi/Documents/PersonnalProjects/Solidity.nosync/TokenisationProject/contracts/BCPLSale.sol",
  "compiler": {
    "name": "solc",
    "version": "0.8.1+commit.df193b15.Emscripten.clang"
  },
  "schemaVersion": "3.4.7",
  "updatedAt": "2022-06-10T15:29:22.441Z",
  "networkType": "ethereum",
  "devdoc": {
    "kind": "dev",
    "methods": {
      "buyTokens(address)": {
        "details": "low level token purchase ***DO NOT OVERRIDE*** This function has a non-reentrancy guard, so it shouldn't be called by another `nonReentrant` function.",
        "params": {
          "beneficiary": "Recipient of the token purchase"
        }
      },
      "rateA()": {
        "returns": {
          "_0": "the number of token units a buyer gets per wei."
        }
      },
      "tokenA()": {
        "returns": {
          "_0": "the token being sold."
        }
      },
      "walletA()": {
        "returns": {
          "_0": "the address where funds are collected."
        }
      },
      "weiRaisedA()": {
        "returns": {
          "_0": "the amount of wei raised."
        }
      }
    },
    "version": 1
  },
  "userdoc": {
    "events": {
      "TokensPurchased(address,address,uint256,uint256)": {
        "notice": "Event for token purchase logging"
      }
    },
    "kind": "user",
    "methods": {},
    "version": 1
  }
}